:020000040800F2
:10000000E8060020350200083D0200083F02000813
:1000100041020008430200084502000800000000F9
:10002000000000000000000000000000470200087F
:1000300049020008000000004B0200084D020008C1
:100040004F0200084F0200084F0200084F0200084C
:100050004F0200084F0200084F0200084F0200083C
:100060004F0200084F0200084F0200084F0200082C
:100070004F0200084F0200084F0200084F0200081C
:100080004F0200084F0200084F0200084F0200080C
:100090004F0200084F0200084F0200084F020008FC
:1000A0004F0200084F0200084F0200084F020008EC
:1000B0004F0200084F0200084F0200084F020008DC
:1000C0004F0200084F0200084F0200084F020008CC
:1000D0004F0200084F0200084F0200084F020008BC
:1000E0004F0200084F0200084F02000800F002F81B
:1000F00000F090F80AA090E8000C82448344AAF132
:100100000107DA4501D100F085F8AFF2090EBAE82F
:100110000F0013F0010F18BFFB1A43F0010318473B
:100120000C4300002C430000103A24BF78C878C16B
:10013000FAD8520724BF30C830C144BF04680C60ED
:10014000704700000023002400250026103A28BF35
:1001500078C1FBD8520728BF30C148BF0B60704739
:100160006E2900F04381702900F08D82662904F029
:10017000DA80652904F0D780672904F0D4806129EA
:1001800004F0D38003681B0A28BF41F0800169296D
:1001900000F0F080642900F0ED80752900F0EA801D
:1001A0006F2900F01A82782900F05982E92900F0BD
:1001B000B581E42900F0B281F52900F0AF81EF2983
:1001C00000F01782F82900F058820368DB0928BF85
:1001D00041F08001632900F05B87732900F060879C
:1001E000E32900F06B87F32900F070870020704747
:1001F0001FB500F0BDFF04000020002103F030FB1C
:10020000401C60600020002103F014FBE0601FBD73
:1002100010B510BD00F07EFF1146FFF7E9FF03F0B7
:1002200045FA01F05BF803B4FFF7F2FF03BC01F0FD
:10023000A3F800000948804709480047FEE7FEE7A9
:10024000FEE7FEE7FEE7FEE7FEE7FEE7FEE7FEE786
:1002500004480549054A064B70470000892A0008F2
:10026000ED000008E8000020E8060020E802002079
:10027000E80200207CB51D4616460C00009001D017
:100280002044401E074B7B442A4669460190304675
:1002900000F0C5F805461CB10020694600F0D2F810
:1002A00028467CBDC501000070477047704770B597
:1002B000044685690068C10601D5302600E0202685
:1002C000C00707D070BDD4E9012130469047206AAD
:1002D000401C20626D1EF6D570BD70B50446856960
:1002E0000078C00707D170BDD4E9012120209047D4
:1002F000206A401C20626D1EF6D570BD09684A0553
:1003000001D540B27047C905FCD500B270470968F5
:100310004A0501D5C0B27047C905FCD580B2704707
:1003200070B50C460546012A05D02878800600D510
:10033000EA69002302E0012305E05B1C934202D23C
:10034000E05C0028F9D1A869E618C01AA861286AFB
:10035000184428622846FFF7AAFF04E0D5E90121E6
:1003600014F8010B9047B442F8D32846FFF7B5FFC5
:1003700070BD00002DE9F041064600241068752983
:10038000314616A510D0FFF7B9FF002802DA404227
:1003900013A507E031688A0701D512A502E04907D5
:1003A00004D511A5012401E0FFF7B1FF00210A22C5
:1003B00006F1240709E0B0FBF2FCB0FBF2F302FB0C
:1003C0001C00303078541846491C0028F3D12346CD
:1003D0002A463046BDE8F04100F069BA000000004E
:1003E0002D0000002B0000002000000011680268B2
:1003F000006A530501D508700AE0D30501D50880CD
:1004000006E0130603D5C217C1E9000200E0086048
:100410000120704701694A1C02610878704700B5E5
:100420008FB0CDE901310021059105497944CDE92D
:1004300003101146684600F031F90FB000BD00000E
:10044000E5FFFFFF0A6802F8010B0A607047D1E977
:1004500000239A4202D2531C0B60107070470000B8
:100460002DE9FF5F15468A460446DFF8AC80F84464
:100470000027D8E900103E46CDE9001010E03AF818
:1004800016106A4602A800F025FE411C07D021780C
:10049000890603D5E269391891420DD80744761CC4
:1004A0002078800602D5E069B84205DDAE42E6DB81
:1004B0003AF816000028E2D1A069C01BA0612046CE
:1004C000FFF7F5FED8E90010CDE90010002017E095
:1004D0003AF818106A4602A800F0FCFDB0F1FF3FA0
:1004E00081460BD000250DF1080B05E0D4E9012170
:1004F0001BF8050090476D1C4D45F7D308F101002E
:10050000B0428046E4DB206A384420622046FFF790
:10051000E4FEBDE8FF9F0000BE3E00002DE9F04173
:100520008046D21D22F007020025D2E90002F529FB
:1005300015A614D0011E72F1000106DA0023D0EBDB
:10054000030063EB020211A608E0D8F800108B0745
:1005500001D50FA602E0490701D50EA601251146D7
:10056000002408F1240704E000F05CF930323A5529
:10057000641C50EA0102F7D12B4632462146404620
:10058000BDE8F04100F093B9000000002D0000002C
:100590002B0000002000000030B4002100F12404F2
:1005A00008E002F00705D208303542EA4372DB0862
:1005B0006554491C52EA0305F3D10468002310A2D4
:1005C000250707D5A40600D421B1C46901230DA2D3
:1005D000641EC46130BC00F06AB910B504462146FF
:1005E0001068FFF794FE02462046BDE81040002345
:1005F000D2E7D21D22F00701D1E90023CCE70000A9
:100600000000000030000000F0B40D46018809052C
:1006100002D5214C7C4402E01F4C7C440E34002166
:1006200000F1240608E002F00F071209E75D42EA34
:1006300003721B097754491C52EA0307F3D102786D
:100640000023120704D5702D06D009B102231134FE
:100650002246F0BC00F02BB901231034F8E770B546
:1006600004460D4621461068FFF751FE0246294612
:100670002046BDE870400023C6E7D21D22F00703E4
:10068000D3E90023C0E70368126843F02003036046
:100690000823C3610023B7E7203D00002DE9F05F88
:1006A000894604464FF0000ADFF874B1FB44C0F8F5
:1006B00020A02046E1688847002874D0252806D06D
:1006C000D4E901219047206A401C2062F1E700260E
:1006D0005F462046E16888472028054607DB312D24
:1006E00005D2781910F8200C08B10643F1E7B007DD
:1006F00001D526F00406C4F81CA00027C4F818A0F1
:100700002A2D09D0284602F082FA38B304EB870874
:10071000303DC8F8185019E059F8041B204604EB86
:1007200087029161E1688847012F054618D1E06989
:10073000002820DA26F020061DE0D8F8180000EB8B
:10074000800005EB40003038C8F818002046E1680A
:100750008847054602F05BFA0028EED1012F0AD047
:100760002E2D08D12046E16888477F1C0546022FC0
:1007700046F02006C4DBA069002803DA404246F0B8
:100780000106A061F00701D026F010066C2D0BD0F9
:10079000682D09D04C2D39D06A2D35D0742D35D027
:1007A0007A2D33D016E038E0E1682F46204688479E
:1007B000B842054609D16C2F26D04FF48060E1681D
:1007C000064320468847054604E06C2F1AD04FF4B4
:1007D000807006430DB3A5F14100192802D82035D9
:1007E00046F400664A462946204626604E46FFF7F4
:1007F000B7FC80B101280BD0F61D26F0070000F1F0
:10080000080956E74020E4E78020D8E70020D6E733
:1008100006F104094DE7284652E7206ABDE8F09F3B
:10082000B03C000030B5B0F10A024FEA900E71F111
:1008300000034EEA817EB0EB0E0061EB91014FEABE
:10084000101E4EEA017E10EB0E0041EB11114FEA33
:10085000102E4EEA016E10EB0E0041EB11214FEA13
:10086000104E4EEA014E10EB0E0041EB11414018C4
:1008700041F100014FEAD00040EA41704FEAD10156
:1008800010EB80054FEA810444EA907444EB0104C4
:100890006D1944EB0404521BA3414FF0000348BF01
:1008A0000A3200D530BD401C41F1000130BD2DE9B8
:1008B000F0470D4699469246044600F12408016827
:1008C000880604D5E06921F01001216000E00120D4
:1008D000A84201DD471B00E00027A1697A1902EB5D
:1008E0000900081AA0612078C00602D42046FFF74C
:1008F000DEFC002608E0D4E901211AF80600904742
:10090000206A401C761C20624E45F4DB2078C0062D
:100910000AD52046FFF7CBFC06E0D4E901213020C0
:100920009047206A401C2062381EA7F10107F4DCC2
:1009300007E0D4E9012118F805009047206A401C1F
:100940002062281EA5F10105F3DC2046FFF7C5FC57
:100950002078000602D50220BDE8F0870120FBE7E1
:1009600070472DE9FF4F0C461E464FF0FF378BB006
:10097000D2E90001DDF860800A908A46C1F30A5589
:1009800005B93D46002108464FF00000BAF1000FBE
:1009900000F4400005DA00EB80004FF4400101EA6A
:1009A00050004FEA9059B9F1010F00DDB9460A989D
:1009B00050EA4A000ED044F61050A5F2FF354543E8
:1009C0002F14B8F1000F1ED07542291E1EDDC9F18B
:1009D00000021CE0B8F1010F4FF0000001D03021FF
:1009E00003E0F24305E02154401CB042FBDB3046FB
:1009F0000022002121540B99C1F80880C1E9002090
:100A00000FB0BDE8F08FBD1B6D1CDEE74A4600DA73
:100A1000694206A800F0F0FB06AB93E8070003ABC1
:100A200083E8070050460A9900F0ADFC8DE8070006
:100A3000A0F500501F3800900398002D0ADD42F207
:100A40001F014A460844002303A90390684600F0AA
:100A500016FF09E0A0F500504A461F38002303A9FD
:100A60000390684600F020FF8DE807000004000CAA
:100A700003D04FF0FF30410800E01046B8F1000FFE
:100A800003D00022009215461EE0751E05D4FFF724
:100A9000C9FE303262556D1EF9D5B34601220843B6
:100AA00002D000227F1C04E02078302801D10022EF
:100AB0007F1E002A099784D01DE0112D07DAFFF769
:100AC000B1FE303262556D1C50EA0102F5D1084387
:100AD00002D00098C8B10EE00021681E05E0235C3A
:100AE000625C63542254401E491C8142F7DBAB46D2
:100AF000A81B401E0990002004F80B000B98099ACF
:100B0000C0F80880C0E9002B7AE711264FF00008F2
:100B100057E72DE9F04F88460446D21D22F0070121
:100B200091B0D1E90001CDE90A0102F05CF802467A
:100B30000B98C00F01D02D2007E02068810701D558
:100B40002B2002E0202101EAC000032A099001D0F5
:100B5000072A05DB03464146204600F00DFB0BE16A
:100B60002078800601D5E06900E00620B8F1650F25
:100B7000814606D0B8F1660F18D0B8F1670F70D172
:100B800031E00020B9F1110F009001DB112301E0E9
:100B900009F101030AAA01A90CA8FFF7E2FEDDE9A9
:100BA0000C70002609F10105834647E001204B4601
:100BB00000904FF000470AAA01A90CA8FFF7D1FE48
:100BC000DDE90DB00C995D46002610B909F1010070
:100BD0000D18B9EB050003D4C0F1FF3609F101058A
:100BE000A5EB09002BE0B9F1010F01DA4FF0010983
:100BF0000020B9F1110F0090484601DD112300E0FB
:100C000003460AAA01A90CA8FFF7ABFEDDE90C70A8
:100C10004D4600268346207800070AD4AB4500DA0B
:100C20005D4601A8012D04DD411911F8011C302990
:100C300007D04F4502DA17F1040F04DA012082468B
:100C40000FE06D1EEEE7002F02DCED1B3E4403E0DB
:100C5000781CA84200DD7D1CB81B00F1010A4FF092
:100C600000472078000703D4AA4501DB4FF0FF3A84
:100C70000021B7F1004F0DF143088DF8431024D047
:100C800002202B23002F01DA7F422D230A21021E8E
:100C9000A0F1010000DC5FB197FBF1FC97FBF1F2E2
:100CA00001FB1C7C17460CF1300C08F801CDEEE777
:100CB000A8F1010003702188090501D5452100E054
:100CC0006521A0F1010800F8011C09980FA9A1EB0A
:100CD0000807FF1D00B10120411901EBEA70A1696D
:100CE0003844081A401EA0612078C00602D420466D
:100CF000FFF7DDFA099828B1D4E901219047206A6D
:100D0000401C20622078C00622D52046FFF7CFFA8B
:100D10001EE0002E04DBB34502DD01A8805D00E08B
:100D20003020D4E901219047206A401C2062761CC3
:100D3000AAF101005FEA000A0AD100F019FAC068BE
:100D40000168405CD4E901219047206A401C206280
:100D5000281EA5F10105DCDC07E0D4E9012118F823
:100D6000010B9047206A401C2062381EA7F1010742
:100D7000F3DC2046FFF7B1FA032011B041E6000092
:100D80002DE9F04F04460D46D21D22F0070089B030
:100D9000D0E900974846394601F025FF0246F80F92
:100DA00001D02D2307E02068810701D52B2302E025
:100DB000202101EAC0038DF820300BB1012000E0B2
:100DC0000020032A824601D0072A04DB2946204658
:100DD00000F0D2F93FE12078800601D40D2500E033
:100DE000E569C7F30A560D2D49DA00214FEA175B72
:100DF00008464FF00000002F00F4400007DA00EB37
:100E000080004FF4400100EBD07001EA60008115D2
:100E1000012901DD4FF0FF3100224FEA850CBCF1C2
:100E2000180F06D31346ACF118004FF08052C240A1
:100E300003E04FF4801323FA0CF30CF10C0CBCF11B
:100E4000200F04D3ACF1200C09FA0CF001E007FAF2
:100E50000CF000294FF0004801DD18B90FE00ED169
:100E600040450CD319EB02095F4121B9404502D13D
:100E70009F4329EA0209BBEB175F00D0761C20884C
:100E8000000502D57B48784402E07A487844193856
:100E900008AA302302F80A30037C0AF10101002E6F
:100EA0000AF1020A53546A4602DC4FF0300101E0B5
:100EB0004FF031014FF001088DF8001002D0A6F27A
:100EC000FF3603E059EA470100D06B4E002D02DCEB
:100ED0002178090704D54FF002082E218DF8011062
:100EE000C44600210BE0C7F303433F01C35C491C28
:100EF0006D1E02F80830052908F1010801DA002DFD
:100F0000F1DC00210CE000EB1973491C1B786D1E0D
:100F1000082902F808304FEA091908F1010801DA36
:100F2000002DF0DC21688B0602D516E0A8F101083F
:100F3000E04505DD02EB080313F8013C302BF5D04A
:100F4000B8F1000F09DD02EB080313F8013C2E2B6A
:100F500003D1090701D4A8F10108002D05DD3E21C8
:100F600002F808106D1E08F10108407C002E02F8FE
:100F7000080008F1010804DA2D20764202F8080082
:100F800002E02B2002F808000A214FF47A70864212
:100F900008F101080BDB96FBF0F3303302F8083060
:100FA00096FBF0F308F1010800FB136601E0642EE4
:100FB0000CDB642096FBF0F3303302F8083096FB2C
:100FC000F0F308F1010800FB136601E00A2E06DBCE
:100FD00096FBF1F0303002F8080008F1010896FBAA
:100FE000F1F001FB1060303002F80800A16908F14F
:100FF000010808EB050202EB0A00081AA06120783C
:10100000C00602D42046FFF752F9216A08AE01EB70
:101010000A00206204E0D4E9012116F8010B904790
:10102000BAF1010AF7D22078C00602D52046FFF7B0
:101030003EF96E4609E016F8010B3E280FD0D4E9C0
:1010400001219047206A401C2062B8F10108F2D2C9
:101050002046FFF742F909B00320BDE8F08F206A6F
:101060002844206203E0D4E90121302090476D1E1E
:10107000EBD3F8E7FA34000002FCFFFF10B5436938
:1010800013B1AFF3008001E0FFF74AF9012010BD72
:10109000127800F124010A7000224A700122EDE763
:1010A00011684FF0FF32E9E710B5436913B1AFF3B0
:1010B000008001E0FFF7D4F9012010BD128800F193
:1010C000240182840022C2840122EDE711684FF0DE
:1010D000FF32E9E770B516460C46054600F040F8C9
:1010E000036893F80101012806D0FF2C0FD8185D82
:1010F00068B101202C7070BDD3F80701324621463B
:1011000003F2071303442846BDE8704018474FF028
:10111000FF3070BD754600F0EBF8AE46050069463D
:10112000534620F00700854618B020B5FFF790F829
:10113000BDE820404FF000064FF000074FF00008D8
:101140004FF0000B21F00701AC46ACE8C009ACE859
:10115000C009ACE8C009ACE8C0098D467047000082
:1011600010B500F005F8001D10BD00BFF526000009
:1011700000487047A40000202DE9F0411F460446B6
:1011800003260168072A01F4006004DB08B116A5F4
:1011900005E016A503E008B115A500E015A521F0AE
:1011A00010002060A069C01EA0610FB1401EA061A8
:1011B0002046FFF77CF84FB1D4E90121384690472B
:1011C000206A401C2062C01C206206E0206AFAE708
:1011D000D4E9012115F8010B9047761EF8D220467C
:1011E000FFF77BF8BDE8F0814E414E006E616E0066
:1011F000494E4600696E66002DE9F0478146164665
:101200008AB0354878440DC88DE80D0032487844DE
:10121000801C03AC0DC884E80D0041F69B300844E7
:10122000372190FBF1F290FBF1F5A5F1800501FB70
:1012300012041B3C02D56442012000E00020DFF8CC
:1012400098A080460027FA44AAF1BE0A0EE0E00703
:101250000AD03246684607EB470101230AEB8101B9
:1012600000F022FB8DE8070064107F1C002CEED1FB
:10127000194F7F44AE3F19E0E80715D007EB041083
:101280000DF1180A90E80E008AE80E00C068F042DE
:1012900001D1981908903246012306A903A800F04D
:1012A00003FB03AB83E807006D10641C002DE3D142
:1012B0004FF0010332466946B8F1000F03A802D08F
:1012C00000F0DDFA01E000F0EFFAC9E90001C9F829
:1012D00008200AB0BDE8F0870C32000010B50446C3
:1012E000AFF300802046BDE81040FEF79CBF000031
:1012F00000487047840000204FF0013C50F8042B58
:1013000051F8043B9A4221D1A2EB0C03934313EA18
:10131000CC1317D150F8042B51F8043B9A4215D145
:10132000A2EB0C03934313EACC130BD150F8042B1C
:1013300051F8043B9A4209D1A2EB0C03934313EA00
:10134000CC13DBD04FF00000704700BFD01A01BAB9
:10135000B1FA81F101F0180122FA01F0CB40C1F19C
:101360002001DBB2C0B2C01A2CFA01F3D11A9143AA
:1013700011EAC311E6D1704701491820ABBEFEE760
:101380002600020070475FEA400C08BF91F0000F92
:101390004FEA8C234FEAC12243EA51514FEA1C50D5
:1013A00018BF00F5F0404FEA300018BF41F000418F
:1013B0005FEA6C5C00F02980BCF1FF3F08BF40F0A1
:1013C00080407047130C06BF12044FF0100C4FF012
:1013D000000C130E04BF12020CF1080C130F04BF13
:1013E00012010CF1040C930F04BF92000CF1020CDB
:1013F000D30F04BF52000CF1010C11464FF0000254
:10140000A0F11F00A0EB0C00704711F0004F08BFC7
:10141000704731F000413FF4D5AF0B0C06BF090413
:101420004FF0100C4FF0000C0B0E04BF09020CF132
:10143000080C0B0F04BF09010CF1040C8B0F04BF47
:1014400089000CF1020CCB0F04BF49000CF1010C18
:10145000CCF12003A0EB0C0022FA03F302FA0CF209
:1014600041EA030100F10100704720F07F4C80EA5F
:10147000030023F07F47ACEB070303F57C5300F038
:10148000004003F1FF032DE980494FEA154B09B4F1
:101490004FEA144325EA0B4E24EA03480FF20426D0
:1014A00006EB132749083E785FEA320203FB066722
:1014B000C7F5000707FB06F64FEA54374FEAD64652
:1014C00006F1020607FB066CCCF1005C4FEA1C47F4
:1014D0002CEA074C07FB06F40CFB06F504EB15465B
:1014E0004FEA961634BF00204FF000404FEAD13744
:1014F00006FB07FC4FEA1C4C0CFB0BF7D21B03FB53
:101500000CF761EB07010CFB0EF7B0EB074072EB39
:1015100017420CFB08F734BFA2EB0742B2EB0742BD
:1015200061EB17414FEA0C444FEA910706FB07FCB9
:101530004FEA1C4C0CFB0BF7B0EBC74072EB573279
:1015400003FB0CF734BFA2EBC742B2EBC74261EB1F
:1015500057310CFB0EF7B0EBC70072EB57720CFB68
:1015600008F734BFA2EBC702B2EBC70261EB5771B9
:10157000039F4FEA816141EA921104EBCC044FEAE8
:10158000D1374FEA826206FB07FC42EA90124FEA2B
:1015900080604FEA1C4C0CFB0BF7D21B03FB0CF7D3
:1015A00061EB07010CFB0EF7B0EB074072EB174243
:1015B0000CFB08F734BFA2EB0742B2EB074261EB2A
:1015C00017414FEA8C554FEA910704EB9C2406FB28
:1015D00007FC4FEA1C4C0CFB0BF7B0EBC74072EB5F
:1015E000573203FB0CF734BFA2EBC742B2EBC74242
:1015F00061EB57310CFB0EF7B0EBC70072EB577283
:101600000CFB08F734BFA2EBC702B2EBC70261EBD9
:10161000577115EB4C254FEA816141EA92114FEA6F
:1016200082624FEAD13742EA901206FB07FC44F18E
:1016300000044FEA80604FEA1C4C0CFB0BF7D21BF6
:1016400003FB0CF761EB07010CFB0EF7B0EB074057
:1016500072EB17420CFB08F734BFA2EB0742B2EB68
:10166000074261EB174115EB1C154FEA813141EA46
:1016700092414FEA823242EA90424FEA80304FEA8A
:101680000C7644F1000448EA03434EEA0B484FF05D
:10169000000EB2EB080C71EB030724BF624639461B
:1016A0004EEB0E0E4FF0000B0018524149414BEB30
:1016B0000B0BB2EB080C71EB03077BF1000B24BFA3
:1016C000624639464EEB0E0E4FF0000B00185241A9
:1016D00049414BEB0B0BB2EB080C71EB03077BF1B1
:1016E000000B24BF624639464EEB0E0E51EA02074C
:1016F00018BF46F0010616EB0E7655F1000254F1C4
:10170000000103D5BDE88901BDE80088BDE8890175
:10171000BDE80048B619524141EB0101A3F10103B4
:10172000704780807F7E7D7C7B7A7978777676754E
:101730007473727171706F6E6E6D6C6C6B6A6A69C6
:101740006868676666656464636362616160605F60
:101750005F5E5E5D5D5C5C5B5B5A5A5959585857D9
:101760005756565555555454535352525251515041
:1017700050504F4F4F4E4E4D4D4D4C4C4C4B4B4B94
:101780004A4A4A49494948484847474747464646DA
:101790004545454444444443434343424242424115
:1017A0004141002B9C4630D477002BD01CB54FEA2A
:1017B000370703B44FF010004FF01001BAF1000FDB
:1017C00006D0BCF1000FDCBF40F0080040F008017B
:1017D0004FF000000FBCBDE810400BF1010BBBF156
:1017E000010F08BF5FEA170722BF12F1010211F1D2
:1017F00001014FF0004143F1000300F0004043EAD3
:1018000000007047F9D35708D0E746EA064613F1BF
:10181000400F4FEA16461FDD13F1200FDFBF1643BE
:101820000A46002120335B42BED0C3F1200746EABE
:10183000064602FA07F74FEA164646EA0706C3F1DC
:10184000200722FA03F201FA07F721FA03F14FF019
:10185000000342EA0702A7E746EA020646EA06460E
:101860004FEA164646EA0106BCBF46EA0646360C73
:101870004FF000034FF000024FF0000194E72DE914
:10188000804C9A46934670B491E8380007C831EA14
:10189000400C48BF34EA430C03D5FFF7E6FDFFF7E1
:1018A00080FFF0BCBDE8008C2DE9804C9A46934641
:1018B00070B491E8380007C810F0804F08BF13F0EB
:1018C000804F03D100F005F8FFF76BFFF0BCBDE8D7
:1018D000008C20F07F4780EA030023F07F4C07EB69
:1018E0000C03A3F57C5300F00040A3F1FE0392F03B
:1018F000000F00F0B38095F0000F00F077802DE925
:1019000001494FEA11404FEA144621EA004800FB22
:1019100006FC24EA064708FB06F607FB08F800FB6E
:1019200007F718EB06484CEB164C4FEA124B18EB36
:1019300007484FEA15464CEB174022EA0B4E0BFBCB
:1019400006FC25EA06470EFB06F607FB0EFE0BFB20
:1019500007F71EEB064E4CEB164C4FF000061EEB45
:10196000074E4CEB174B18EB0B0840F1000018EB3F
:101970000E0B58EB000840F100008F1A4FF00001E9
:101980003CBFC943661B14BFB5EB040C00213CBF30
:10199000C943F61B4FEA17444EEA8E0E27EA044568
:1019A0004FEA1C4704FB07622CEA074C05FB07F7CC
:1019B0000CFB05F604FB0CFC16EB074642EB17424A
:1019C00016EB0C4642EB1C421BEB060658EB0202E0
:1019D000414146EA9E0601D5BDE80189B61952414A
:1019E00041EB0101A3F10103BDE801894FEA144570
:1019F0004FEA114724EA054621EA074C05FB07F4A4
:101A000006FB07F70CFB06F105FB0CFC11EB07418D
:101A100044EB17444FEA124711EB0C4144EB1C44D2
:101A200022EA074C05FB07F206FB07F70CFB06F65C
:101A300005FB0CFC16EB074642EB174216EB0C4677
:101A400042EB1C456A1854F1000148BF7047B619B3
:101A5000524141EB0101A3F10103704795F0000FE2
:101A600037D04FEA11424FEA144721EA024624EAEE
:101A7000074C02FB07F106FB07F70CFB06F402FB21
:101A80000CFC14EB074441EB17414FEA154714EBEC
:101A90000C4441EB1C4125EA074C02FB07F506FB11
:101AA00007F70CFB06F602FB0CFC16EB074645EBB2
:101AB000174516EB0C4645EB1C42121951F100017B
:101AC00048BF7047B619524141EB0101A3F1010330
:101AD00070474FEA14454FEA114724EA054621EAC8
:101AE000074C05FB07F106FB07F70CFB06F24FF06E
:101AF000000605FB0CFC12EB074241EB174112EB11
:101B00000C4251EB1C4148BF7047921841EB010158
:101B1000A3F10103704721B1026842F001020260A3
:101B200003E0026822F0010202607047016821F0C0
:101B3000010101600021016041608160C160484A8B
:101B4000811A90425BD012DC464AA0EB020190421F
:101B50003AD007DC44490144D9B1142922D02829BC
:101B60007AD128E0142938D0282975D13EE0B1F582
:101B70006C7F5BD006DCB1F5627F49D0B1F5677F41
:101B80006AD14CE0B1F5717F57D0B1F5767F63D162
:101B90005BE034494439496841F00F01314A443A25
:101BA00051605AE02F494439496841F0F0012D4A0B
:101BB000443A516051E02B494439496841F470611D
:101BC000284A443A516048E026494439496841F47A
:101BD0007041244A443A51603FE0224944394968FF
:101BE00041F470211F4A443A516036E01D4944399E
:101BF000496841F470011B4A443A51602DE019498B
:101C00004439496841F07061164A443A516024E011
:101C10001649096841F00F01144A11601DE013498B
:101C2000096841F0F001114A116016E00F49096896
:101C300041F470610D4A11600FE00C49096841F4EC
:101C400070410A4A116008E006E00849096841F459
:101C50007021064A116000E000BF00BF704700001D
:101C60008000024044000240F8FFFDBF040402402F
:101C700001460020002201F0805313B1054B1A6881
:101C800001E0054B1A6802EA01030BB1012000E0F4
:101C900000207047000402400000024010B50022FE
:101CA000026847F6F0739A430C6A8B6823430C6909
:101CB00023434C6923438C692343CC6923434C6AF7
:101CC00023438C6A23431A430260CB6843600B684A
:101CD00083604B68C36010BD10B50C48006800F00D
:101CE000010078B9642001F09AF80948806800F48E
:101CF000005008B9012402E0002401F0E3F9204675
:101D000001F0B6F9642001F08AF810BD080801401E
:101D1000001001402DE9F041024600250026002078
:101D200000230024002791F803C00CF00F0591F860
:101D300003C00CF0100CBCF1000F03D091F802C0EE
:101D40004CEA050591F800C0BCF1000F31D01468D1
:101D500000202BE04FF0010C0CFA00F3B1F800C0AA
:101D60000CEA03069E4220D183004FF00F0C0CFAC0
:101D700003F7BC4305FA03FC4CEA040491F803C0E2
:101D8000BCF1280F06D14FF0010C0CFA00FCC2F890
:101D900014C00AE091F803C0BCF1480F05D14FF020
:101DA000010C0CFA00FCC2F810C0401C0828D1D36A
:101DB0001460B1F800C0BCF1FF0F34DD546800209E
:101DC0002EE000F1080C4FF0010808FA0CF3B1F80E
:101DD00000C00CEA03069E4221D183004FF00F0C95
:101DE0000CFA03F7BC4305FA03FC4CEA040491F82F
:101DF00003C0BCF1280F05D100F1080C08FA0CF85B
:101E0000C2F8148091F803C0BCF1480F07D100F16B
:101E1000080C4FF0010808FA0CF8C2F81080401CBA
:101E20000828CED35460BDE8F081024600209368B4
:101E30000B400BB1012000E0002070470AB10161A6
:101E400000E04161704721B1028842F48062028063
:101E500004E002884FF6FF331A400280704770B5E5
:101E600002460024002500230020958A138B1B04C2
:101E700045EA030626F07F4404EA01068E4201D1BA
:101E8000012000E0002070BD21B1028842F0010273
:101E9000028004E002884FF6FE731A400280704709
:101EA00010B504460B48844209D10121480500F0D1
:101EB000F3FB00214FF4001000F0EEFB08E00121DD
:101EC000880500F0E9FB00214FF4800000F0E4FBFE
:101ED00010BD00000054004021B1028842F480721D
:101EE000028004E002884FF6FF631A4002807047C8
:101EF00021B1028842F40072028004E002884FF6A9
:101F0000FF531A40028070470CB5024600200023A0
:101F10000193009300920B0F019321F07F41019BED
:101F20001BB1009B1433009303E0090C009B183392
:101F30000093009B1B680B400BB1012000E00020C8
:101F40000CBD00002DE9F04385B004460D46002687
:101F5000B1460427DFF8CC80A6884FF6C070064053
:101F6000684600F0B9FBDDF808802F48B8FBF0F0B8
:101F70001FFA80F946EA0906A68020884FF6FE710E
:101F80000840208000262949286888420CD8286803
:101F90004000B8FBF0F087B2042F00DA04273E437C
:101FA00009F10100208427E0E8884BF6FF718842A0
:101FB00006D1286800EB4000B8FBF0F087B209E0DA
:101FC000286800EBC00101EB0010B8FBF0F087B20D
:101FD00047F48047C7F30B0008B947F0010747F4FF
:101FE000004006434FF4967009FB00F04FF47A71FD
:101FF00090FBF1F0401C2084A683208840F0010073
:10200000208026884FF6F5300640A8886989084365
:1020100006432680A88929890843208105B0BDE8A8
:10202000F083000000127A0040420F00A0860100F9
:102030000146088AC0B2704712B141F0010102E0C6
:102040004FF6FE731940018270470182704700000D
:102050004CF6CC4001490860704700000030004059
:102060004AF6AA200149086070470000003000408D
:102070000149486070470000003000400149886015
:1020800070470000003000400149086070470000C0
:10209000003000403848806940F0040036498861CB
:1020A0000846806940F0100088610846C06940F029
:1020B0000200C8613148006820F088402F4908605C
:1020C0000846006840F0084008602C480C30006862
:1020D00040F0C00029490C3108602848006820F011
:1020E0000400264908600846006840F008000860BF
:1020F00022480C30006840F0010020490C31086093
:102100001F48406820F440001D4948600846406868
:1021100040F4401048601B4800884FF2F00108432B
:10212000184908800846008840F201110843154903
:10213000088014480830008820F022001149083136
:10214000088010481038008840F003000D4910390D
:1021500008804FF47A700B49143108800948183808
:10216000008840F001000749183908804FF4FA70E0
:1021700004490C31088070470010024000080140FB
:10218000001001401804004000B585B00121052071
:1021900000F092FA0420ADF810001C208DF8130016
:1021A00003208DF8120004A91748FFF7B3FD0121A1
:1021B000480400F061FA0121084600F04DFA4FF49E
:1021C000E13000900020ADF80400ADF80600ADF855
:1021D0000800ADF80C000C20ADF80A0069460B4869
:1021E00000F0AAFC0121094800F07BFC012107480E
:1021F00000F095FC04210448FFF717FE10B90220F7
:1022000005B000BD0120FBE700080140004400408C
:1022100010B50749FF2000F0FDF9012000F094F906
:1022200003480078FF2801D1012010BD0020FCE701
:10223000150000201FB54FF4165000900020ADF897
:102240000400ADF80600ADF80800ADF80C000C2055
:10225000ADF80A006946184800F06EFC40211648A7
:1022600000F03CFCF021144800F0B9FC00BF402114
:10227000114800F04BFC0028F9D00F4800F0AAFCF0
:10228000C4B24FF4E13000900020ADF80400ADF886
:102290000600ADF80800ADF80C000C20ADF80A00FF
:1022A0006946054800F048FCF02C02D0012004B03B
:1022B00010BD0320FBE70000004400402DE9FF5F54
:1022C00081460125002003900024834601264E48C4
:1022D0000078002879D1F0200290FF2000210B46E1
:1022E0000122CDE9001002A9104600F097F803285A
:1022F00009D10020454908704349087044490870D5
:1023000004B0BDE8F09F00BFFFF782FF0746FFF76C
:102310007FFF8046012F03D1B8F1010F00D13CE0CF
:10232000474501D0BA4619E038480078854209DAB5
:102330003848005D3040002801DD012000E0002029
:10234000824607E031480078854201D1012000E053
:1023500000208246BAF1000F00D10395BAF1010FB7
:1023600005D12C48005D30432A49085504E029482E
:10237000005DB043274908552749504600F04AF907
:10238000012000F0E1F8681CC5B27006060E16B90F
:10239000601CC4B20126082CB6DB00BF412D25DB32
:1023A0001A49039808700846007810B901201649A8
:1023B00008704FF0010B164800781549097801EBB9
:1023C000C10149440872002009E00FE01149095C8D
:1023D0000F4A127802EBC2024A441154401C0828EA
:1023E000F4DB0B480078401C09490870BBF1000F72
:1023F00007D1002005490870034908708346044945
:10240000087058467CE700001E0000201D000020D8
:102410001F00002020000020150000202DE9F043BF
:102420008BB080460C4615461E46DDE91297B8F182
:10243000010F06D1FFF7FEFE032802D10BB0BDE865
:10244000F08377E020783D4900F0E4F8641C681ED2
:10245000C5B23B48FFF76AFB3A4800903748019005
:102460000020029008200390002004908020059016
:10247000002006900790089009900A90694630481D
:10248000FFF70CFC2E481430FFF750FB2D4800904E
:102490002A48019010200290082003900020049008
:1024A00080200590002006900790089009900A90DF
:1024B000694623481430FFF7F1FBE0212148001F53
:1024C00000F00CFB0122C0211E48001F00F015FB8C
:1024D00001211B48FFF71FFB012119481430FFF7AA
:1024E0001AFB00BF4FF40010FFF7C2FB0028F9D021
:1024F000002113481430FFF70EFB00211048FFF7AE
:102500000AFB0022C0210F48001F00F0F6FA67B94D
:10251000B9F1000F09DD094800F08DF83070761C24
:10252000A9F1010000F0FF0903E0FF2F01D0781EA0
:10253000C7B200BF002D85DC01207FE71500002019
:102540006C0002400444004010B58CB004462E4894
:10255000FFF7ECFA2D4801902D48029000200390DF
:102560000494059080200690002007900890099020
:102570000A900B9001A92448FFF790FB22481430E1
:10258000FFF7D4FA214801902148029010200390CF
:102590000494002005908020069000200790089069
:1025A00009900A900B9001A917481430FFF776FBA9
:1025B000E0211648001F00F091FA0122C0211348C3
:1025C000001F00F09AFA01210F48FFF7A4FA012139
:1025D0000D481430FFF79FFA00BF4FF40010FFF7CB
:1025E00047FB0028F9D0002107481430FFF793FA81
:1025F00000210548FFF78FFA0022C0210348001F81
:1026000000F07BFA0CB010BD6C00024004440040A6
:102610001500002000220BE000F0010313B1FF239E
:102620000B7001E000230B70491C4010531CDAB200
:10263000082AF1DB704701460020002208E0401024
:102640000B78FF2B01D140F08000491C531CDAB2FB
:10265000082AF4DB7047000029B1064A5269024398
:10266000044B5A6104E0034A52698243014B5A61A8
:10267000704700000010024029B1064AD2690243A7
:10268000044BDA6104E0034AD2698243014BDA6108
:10269000704700000010024029B1064A1269024347
:1026A000044B1A6104E0034A12698243014B1A6128
:1026B000704700000010024029B1064A92690243A7
:1026C000044B9A6104E0034A92698243014B9A6188
:1026D000704700000010024030B5002100220024A5
:1026E00000232D4D6D6805F00C0121B1042905D0A2
:1026F000082923D105E0294D056022E0274D05601A
:102700001FE0254D6D6805F47012022505EB92421D
:10271000214D6D6805F480341CB9214D5543056089
:102720000BE01D4D6D6805F400351DB11C4D554382
:10273000056002E0194D5543056002E0174D056044
:1027400000BF00BF144D6D6805F0F0010909154D7B
:102750006B5C0568DD4045600F4D6D6805F4E06118
:10276000090A104D6B5C4568DD4085600A4D6D6857
:1027700005F46051C90A0B4D6B5C4568DD40C560CE
:10278000054D6D6805F44041890B074D6B5CC568CC
:10279000B5FBF3F5056130BD0010024000127A0070
:1027A00000093D00280000203800002010B5014637
:1027B0000022002300204A11012A02D1094C23687B
:1027C00006E0022A02D1074C236A01E0054C636A45
:1027D00001F01F02012494401C400CB1012000E0D4
:1027E000002010BD00100240014908607047000041
:1027F000800442422DE9FF415448C06880F40050F3
:102800005249C86000F098FB4FF47A7000F007FB63
:10281000022000F039FB4E490860012000F034FB33
:102820004C490860002000F02FFB4B4908604948E4
:1028300001684948006801F001FD4849086000212D
:10284000084600F045FC4348006801F0ADFB044633
:102850000D463F48006801F0A7FB064640A03246FF
:102860000B46CDE9024500903FA000F053FC00214B
:10287000012000F02DFC3948006801F095FB04466A
:102880000D463548006801F08FFB064632460B4680
:1028900039A0CDE9004500F03DFC4FF080412F48C4
:1028A000006801F01BFC0BD838480078012807D1DC
:1028B000002281032548FFF7C1FA00203349087040
:1028C00033492648006801F088FC10D2314922487B
:1028D000006801F082FC0AD22C48007838B9012245
:1028E00091031A48FFF7AAFA0120284908704FF40B
:1028F000FA7000F094FA4FF07E511548006801F02C
:102900006CFC1BD824491248006801F0E7FB05D88D
:1029100000224FF400410D48FFF790FA1F490C4880
:10292000006801F05AFC04D80122D1030748FFF7E0
:1029300085FA4FF4FA7000F072FA04E00122D10334
:102940000248FFF77BFABDE8FF810000001001405C
:102950000000002004000020080000200C000020DF
:102960002020423D200000004B3D20252E316625D1
:1029700073252E31660000004B4F4C4C3D20252E18
:102980003166202F252E3266000000001000002046
:10299000000040400000F04100007042000074421E
:1029A00010B500F001F810BD0CB5002001900090AA
:1029B0003348006840F480303149086000BF304837
:1029C000006800F4003000900198401C01900098CD
:1029D00018B90198B0F5A06FF1D12948006800F44A
:1029E000003010B10120009001E00020009000981C
:1029F000012843D12348006840F0100021490860B5
:102A00000846006820F0030008600846006840F0AF
:102A1000020008601A484068194948600846406842
:102A200048600846406840F4806048600846406856
:102A300020F47C1048600846406840F4E810486084
:102A40000846006840F08070086000BF0C480068CD
:102A500000F000700028F9D00948406820F0030019
:102A6000074948600846406840F00200486000BFDF
:102A70000348406800F00C000828F9D10CBD0000A4
:102A8000001002400020024010B51148006840F0DC
:102A900001000F490860084640680E4908400C498B
:102AA0004860084600680C49084009490860084623
:102AB000006820F4802008600846406820F4FE008A
:102AC00048604FF41F008860FFF76AFF10BD0000E8
:102AD000001002400000FFF8FFFFF6FECA4302802C
:102AE000704721B1828942F40052828104E08289D8
:102AF0004DF6FF731A40828170471AB1838A0B43E7
:102B0000838202E0838A8B438382704702460020DF
:102B100013880B400BB1012000E00020704721B169
:102B2000828A42F00802828204E0828A4FF6F773BA
:102B30001A408282704700002DE9F04786B00546B2
:102B40000E460024A24600BF00BF00272F462C8A55
:102B50004CF6FF700440F08804432C82AC894EF69A
:102B6000F3100440B0883189084371890843044355
:102B7000AC81AC8A4FF6FF400440B0890443AC827C
:102B800001A8FFF7A9FD1248874202D1DDF810A085
:102B900001E0DDF80CA00AEBCA0000EB0A10316876
:102BA0008900B0FBF1F86420B8FBF0F004012009C3
:102BB000642101FB1089322000EB0910B0FBF1F019
:102BC00000F00F0004432C8106B0BDE8F087000040
:102BD0000038014001468888C0F308007047C1F3FF
:102BE000080282807047490050EAC12018BF0420C3
:102BF0004A0D18BF40F0010040F2FF72B2EB515F86
:102C000008BF40F00200012808BF05207047303897
:102C10000A2801D20120704700207047FAE00178AD
:102C2000A83958292FD2DFE801F03EF3F3F3F3F38C
:102C3000F3F3F3F3F3F3F3F3F3F3A1F3F3F3F3F3B6
:102C4000F3F32C2F3235383B4144474A4D5053560D
:102C5000595C5F6265686B6E7174777A7D8083867C
:102C6000898C8F9295989B9EA4A7AAADB0B3B6B954
:102C7000BCBFC2C5C8CBCED1D4D7DADDE0E3E6E92C
:102C8000ECF041210170C3E0A0210170C0E04221BD
:102C90000170BDE0A1210170BAE0E0210170B7E050
:102CA00045210170B4E0A2210170B1E0A3210170BF
:102CB000AEE033210170ABE0A5210170A8E0A621B0
:102CC0000170A5E04B210170A2E0A72101709FE0F7
:102CD0004D2101709CE04821017099E04F21017065
:102CE00096E0A821017093E05021017090E043210B
:102CF00001708DE0542101708AE0A921017087E004
:102D0000AA21017084E05821017081E0E121017065
:102D10007EE0AB2101707BE0AC21017078E0E22124
:102D2000017075E0AD21017072E0AE2101706FE0BD
:102D3000622101706CE0AF21017069E0B021017087
:102D400066E0B121017063E06121017060E0B221B1
:102D500001705DE0B32101705AE0B421017057E0C9
:102D6000E321017054E06521017051E0B52101704B
:102D70004EE0B62101704BE0B721017048E0B82168
:102D8000017045E0B921017042E0BA2101703FE0D5
:102D9000BB2101703CE0BC21017039E0BD21017014
:102DA00036E06F21017033E0BE21017030E0702108
:102DB00001702DE0632101702AE0BF21017027E03E
:102DC0007921017024E0E421017021E07821017073
:102DD0001EE0E52101701BE0C021017018E0C12157
:102DE000017015E0E621017012E0C22101700FE0D0
:102DF000C32101700CE0C421017009E0C5210170FC
:102E000006E0C621017003E0FFE7C721017000BFA3
:102E100000BF401C017800297FF401AF704710B556
:102E2000044603E04FF47A7000F005F8201EA4F188
:102E30000104F7D110BD0146002004E000E0401C71
:102E40000828FCD300200A1EA1F10101F6D1704729
:102E5000F0B502460D46002010E012F8011B0823D1
:102E60000AE080EA010606F0010440100CB180F08F
:102E70008C0049105E1EF3B2002BF2D12E1EA5F17C
:102E80000107FDB2E9D1F0BD30B587B00446552049
:102E90008DF80C0004EBC400114908440168CDF81A
:102EA0000D104068CDF81100BE208DF81500FF20F0
:102EB0008DF816008DF817000A20022106AB0C22AF
:102EC000CDE9001003A90120FFF7A8FA9DF8191019
:102ED0009DF8180000F042F80546284607B030BDBE
:102EE0004000002010B5FFF74FF908B9002010BDD1
:102EF00016E00F49097801EBC1010E4A8818072135
:102F0000FFF7A6FF0A49097801EBC101094A1144FC
:102F1000C979884204D106480078401C04490870E9
:102F20000448FFF7CBF90028E3D101480078DEE739
:102F300014000020400000200EB507A00068029099
:102F4000FF2000210B460222CDE9001002A901203A
:102F5000FFF764FA00200EBDCC4400002DE9FC5FB1
:102F60000646894646EA092505F40040B8B1E8431B
:102F7000401C85B2284600F0BBFE074600220F4BDE
:102F800000F05EFD82460022134600F018FFCDE9F6
:102F9000000100F07BFC04462046BDE8FC9F28466B
:102FA00000F0A6FE07460022044B00F049FD8246D1
:102FB00000F06CFC04462046EFE7000000003040C3
:102FC00010B504461B48844204D101210420FFF7B8
:102FD00073FB2EE01848844204D101210820FFF73A
:102FE0006BFB26E01548844204D101211020FFF735
:102FF00063FB1EE01248844204D101212020FFF728
:103000005BFB16E00F48844204D101214020FFF70A
:1030100053FB0EE00C48844204D101218020FFF7CD
:103020004BFB06E00948844203D101218015FFF7DC
:1030300043FB10BD00080140000C0140001001409E
:103040000014014000180140001C01400020014014
:1030500038B505460C46ADF8004003208DF8020057
:1030600010208DF8030069462846FEF753FE38BD50
:1030700010B5044664B10D48007840F008000B49D3
:103080000870084602782721094800F0ABFB0BE0E6
:103090000648007820F008000449087008460278C5
:1030A0002721034800F09EFB10BD00003C000020DB
:1030B0000054004010B5024800F066FB10BD00004F
:1030C0000054004010B5012000F0A6F910BD00002A
:1030D00070B504460E46002504F0010000B14025FD
:1030E000012C02DD05F11000C5B2A819C5B245F0EA
:1030F000800000F091F90148047070BD3D0000208F
:1031000010B5FFF7D7FF6420FFF789FE00F0CCF879
:1031100010BD00000FB438B505A80090282108485C
:10312000009B049AFDF7A6F8C4B200200090044862
:10313000FFF774FD024800F005F838BC5DF814FB99
:103140005B00002070B5044628E02078092815D0DF
:103150000A2802D00D281BD10AE012480078401C32
:103160001049087000210F480078FFF7B1FF13E005
:1031700000210C480078FFF7ABFF0DE0002504E0CC
:10318000202000F053F9681CC5B2042DF8DB03E0E1
:10319000207800F04BF900BF00BF641C20780028A5
:1031A000D3D170BD3D00002070B50446002564B148
:1031B0003B48007820F00100394908700846027841
:1031C0002721384800F00EFB0BE03548007840F02E
:1031D000010033490870084602782721314800F081
:1031E00001FB2F48007840F002002D490870084686
:1031F000027827212B4800F0F5FA2948007840F0A2
:10320000040027490870084602782721254800F065
:10321000E9FA0120FFF70FFE2721224800F0BEFA4D
:10322000000905011E48007820F004001C490870C0
:103230000846027827211B4800F0D4FA0120FFF746
:10324000FAFD1748007840F0040015490870084658
:1032500002782721134800F0C5FA0120FFF7EBFDA3
:103260002721104800F09AFA45EA10150C4800781A
:1032700020F004000A49087008460278272109480E
:1032800000F0B0FA0648007820F002000449087007
:10329000084602782721034800F0A4FA284670BDAA
:1032A0003C0000200054004010B5022000F0B4F8AB
:1032B000202444F00804204600F0AEF80A20FFF76E
:1032C000AEFD0C2000F0A8F80A20FFF7A8FD0620AC
:1032D00000F0A2F8FFF7F6FE10BD10B5044601E0BD
:1032E000601EC4B20120FFF75FFF00F0800008B14C
:1032F000002CF5D10CB9012010BD0020FCE7000026
:1033000070B504460D4665B14148007820F00100D3
:103310003F4908700846027827213E4800F062FACB
:103320000BE03B48007840F001003949087008463E
:1033300002782721374800F055FA3548007820F008
:10334000F000334908702009097841EA001030493B
:1033500008700846027827212E4800F043FA2C48CE
:10336000007840F004002A490870084602782721B6
:10337000284800F037FA0120FFF75DFD2448007867
:1033800020F00400224908700846027827212148CD
:1033900000F028FA0120FFF74EFD1D48007820F0CC
:1033A000F0001B49087004F00F00097841EA001092
:1033B00017490870084602782721164800F012FACB
:1033C0001348007840F0040011490870084602785C
:1033D0002721104800F006FA0120FFF72CFD0C48C9
:1033E000007820F004000A49087008460278272176
:1033F000084800F0F7F90648007840F0F00004496A
:103400000870084602782721024800F0EBF970BDE9
:103410003C0000200054004010B504466420FFF733
:103420005CFF01212046FFF76BFF10BD10B504467D
:103430006420FFF752FF00212046FFF761FF10BD17
:103440002DE9F04180460C4617461D4601214046B5
:10345000FEF7F9FC0FE02E4601E0701E86B2184917
:103460004046FEF7FCFC08B9002EF6D14046FEF7B8
:10347000DFFD04F8010B3846791E8FB20128EAD12E
:1034800000214046FEF7DFFC01214046FEF730FDFB
:103490002E4601E0701E86B209494046FEF7DFFC69
:1034A00008B9002EF6D14046FEF7C2FD04F8010B24
:1034B0002946404600F050F80020BDE8F0810000A9
:1034C000400003002DE9F04180460E4617461D4698
:1034D00001214046FEF700FD2C4601E0601E84B24B
:1034E0001B494046FEF7BBFC08B9002CF6D11CB9BD
:1034F0006FF00200BDE8F08197B17006010E012265
:103500004046FEF799FD2C4601E0601E84B210494A
:10351000491C4046FEF7A3FC98B9002CF5D110E0F9
:103520007006010E00224046FEF786FD2C4601E0A3
:10353000601E84B207494046FEF791FC08B9002C92
:10354000F6D114B94FF0FF30D4E70020D2E70000E5
:10355000010003008200070070B506460C460121F9
:103560003046FEF7C5FC254600BF06493046FEF74B
:10357000CBFC08B1002DF8D115B96FF0020070BD79
:103580000020FCE7100000102DE9F04180460C46B9
:1035900016461F4614E014F8011B4046FEF755FD81
:1035A0003D4601E0681E85B209494046FEF757FCDA
:1035B00008B9002DF6D11DB94FF0FF30BDE8F081FC
:1035C000301EA6F101018EB2E5D100BFF6E7000082
:1035D0008400070030B585B004460D462448844277
:1035E00004D101214805FFF747F803E001218805D0
:1035F000FFF742F801210820FFF75EF8002120467E
:10360000FEF742FC2046FEF74BFC0020ADF8080018
:1036100001954FF48040ADF810004BF6FF70ADF807
:103620000A004FF48060ADF80E000020ADF80C00E9
:1036300001212046FEF728FC01A92046FEF782FC66
:103640001C208DF8030003208DF8020008488442F6
:1036500003D1C020ADF8000003E04FF44060ADF8A6
:10366000000069460348FEF755FB05B030BD000079
:1036700000540040000C014010B50120FFF7B4F8E1
:1036800000BF6120FFF792F80028FAD045F25550AC
:10369000FEF7FAFC0420FEF7EBFC40F6FF70FEF7A5
:1036A000EDFCFEF7DDFCFEF7D3FC10BDFEF7F2FCEF
:1036B0002D4800F069F8FFF723FD0120FFF7D8FC43
:1036C000FFF710FC80B900210846FFF701FD27A095
:1036D000FFF720FD012291032748FEF7AFFB0122EF
:1036E000D1032548FEF7AAFB2348FFF769FC4FF4F6
:1036F00080412148FFF7ACFC4FF400411E48FFF722
:10370000A7FC012251031C48FEF798FB00224FF44E
:1037100080411948FEF792FB4FF47A70FFF77FFB68
:10372000FFF7AAFF1EE0FEF7D7FAFFF763F813488A
:103730000088401C1149088008460088B0F5E15F08
:103740000EDB00BF0E48006800F4E0600D4908433E
:10375000001D0B490860BFF34F8F00BF00BFFEE79D
:10376000FEF77EFCDFE70000005400404E4F20646F
:103770007331386232300000001001401200002026
:103780000CED00E00000FA0510B5044602492046A1
:10379000FFF720FF10BD0000A086010038B50446E9
:1037A0000D46002000904FF47A73012229462046EE
:1037B000FFF788FE48B14FF47A712046FFF7CCFE40
:1037C0002046FFF7E1FF002038BD4FF47A73012255
:1037D00069462046FFF734FE08B10020F4E79DF863
:1037E0000000F1E7F7B505460E464FF47A73002264
:1037F00031462846FFF766FE04464CB14FF47A7115
:103800002846FFF7A9FE2846FFF7BEFFE0B2FEBD3F
:103810004FF47A73012202A92846FFF7B5FE044649
:103820004FF47A712846FFF797FE0CB1E0B2EEE74D
:103830000020ECE710B500290AD00878002807D04E
:1038400005487844FDF758FD002801D0002010BD40
:103850000248784410BD00000A0C0000020C000071
:1038600010B500290AD00878002807D00548784408
:10387000FDF742FD002801D0002010BD0248784429
:1038800010BD0000FA0B0000F20B000021F0004216
:10389000A2F16052B2F5801F01F0004328BFD2F1BF
:1038A0007F6C0BD95FEA001C43EAC20242EB507006
:1038B00018BF704728BF20F001007047B2F5801F85
:1038C000BCBF184670474FEA410C1CF5001F02D2DE
:1038D000084600F07DBC70B500F01DFA00000089BC
:1038E000FFF7F6BF4FF00040A0F5800070470000E2
:1038F00010B591EA030F48BF83F0004300F17282D4
:10390000841A71EB030C05D2121943EB0C03001B54
:1039100061EB0C01DFF824E14FEA1154A4EB135CD6
:103920001EEA430F18BF9EEA445F73D023EA0E03DA
:10393000DCF1200E21EA045143F4801332D322FA41
:103940000CFE10EB0E0023FA0CFE41EB0E01CCF145
:10395000200E03FA0EFE10EB0E0051F10001B1F53E
:10396000801FCCF1200E32D201EB045112FA0EF27C
:10397000BDE8104058BF7047401C38BF5FEA4202A4
:1039800018BF7047002814BF20F0010041F100016A
:103990004FEA410313F5001F38BF7047A1F1C04142
:1039A00000F007BA012A43EB0302ACF1200CDCF172
:1039B0001F0E32BF4FF0000E23FA0CF310EB030082
:1039C00041EB0451B4EB115FD0D0A1EB045101F5F0
:1039D000801149085FEA300001EB04510ED350F129
:1039E000000038BF12FA0EFE08D1BDE81040C9E74A
:1039F000401C38BF5FEA4202CAD1C3E7BDE81040AD
:103A00004FEA410313F5001F38BF7047A1F1C041D1
:103A100000F0CFB99EEA445F08D011EA5E0FBDE81E
:103A2000104004BF01F0004100207047BDE8104085
:103A300070B500F070F900BF64FBBE3E0000E0FF0F
:103A40002DE9C04130B4DFF8A0C23CEA111418BF20
:103A50003CEA131400F0EC8081EA03051CEA11141F
:103A600044EAD57418BF1CEA131500F0C780A4EB14
:103A700005044FF0004545EAC12145EAC32341EA68
:103A8000505143EA525304F17F74994204F50034D3
:103A90004FEAC0204FEAC22208BF904200F09C804B
:103AA0004FEA13650FF24016765D4FEA134506FBA9
:103AB00005F7C7F1807706FB07F74FEAD737A7FB73
:103AC00003687642C8F58038A7FB06CE38BFA8F158
:103AD000010807FB08E64FF0000EA6FB028CE6FB90
:103AE00003CEDCF1000CCEF1004E38BFAEF1010E7A
:103AF000A6FB0C584FF000074FF00005E6FB0E87C1
:103B0000A1FB08C6A0FB07CE16EB0E0645F100058B
:103B1000E1FB076515F1E04E7EBFA4F580345FEA56
:103B200046066D4116F1800745F100054FEA17275B
:103B30004FEA066647EA0567A6F1DE46B6F1805F02
:103B40004FEA15251FD9384624F0010C05EBC47146
:103B5000BCF1FE6F01EB0C1102D8F0BCBDE8008196
:103B600024425CBF01F5801E9EEAC47F02D4F0BCF3
:103B7000BDE80081244238D4F0BCA1F1C041BDE8C9
:103B8000004100F016B94FEAD22242EA43524FEA0E
:103B9000D323A7FB02864FEAD02040EA415007FB1F
:103BA00003661EEA0E0F4FEAD12105FB026658BFDD
:103BB000A6EB0056B6EB00564FEA520E4EEAC37E15
:103BC00018EB0E0E56EB530EBDD518EB02085E41F6
:103BD0007F1C55F10005B6E74FF480154FF0000744
:103BE0004FF000064FF00008ADE7F0BC4FF00000CA
:103BF00001F1C04101F00041BDE8008111EA0C1F54
:103C00000CEA131500D00CE013EA0C1F00F025801D
:103C10004FF00000F0BC81EA030101F00041BDE873
:103C20000081F0BCBDE8004181EA030100F0C1B8A9
:103C3000F0BCBDE8004170B500F06DF8097EFC3EB7
:103C400000F007B881EA03014FF0000001F00041E5
:103C5000704781EA030100F0ACB8F0BCBDE8004158
:103C60004FF0000021497047FFFDFBF9F7F5F4F232
:103C7000F0EEEDEBE9E8E6E4E3E1E0DEDDDBDAD807
:103C8000D7D5D4D3D1D0CFCDCCCBCAC8C7C6C5C465
:103C9000C2C1C0BFBEBDBCBBBAB9B8B7B6B5B4B37C
:103CA000B2B1B0AFAEADACABAAA9A8A8A7A6A5A467
:103CB000A3A3A2A1A09F9F9E9D9C9C9B9A9999982B
:103CC0009797969595949393929191908F8F8E8ECE
:103CD0008D8C8C8B8B8A898988888787868585845B
:103CE00084838382828181800000FF070000F87F47
:103CF000B0FA80F310FA03F10AD0C3F11D0303F503
:103D000080634FEA41504FEA035202EBD1217047E2
:103D10004FF0000070470EF1020E2EF0030E5EF819
:103D2000046B364205D4012A43EB030515F5001F49
:103D300012D8012841EB010C1CF5001F0CD80ED144
:103D40004FEAD17C15F5001F0CEB4C0C0CF1020C6A
:103D500008BF4CEBD37C04E04FF0080C01E04FEAC5
:103D6000D37C0CEB4C0526FA05F606F00706B6F1F7
:103D7000040C06D20EEB860CBDE870404CF0010C32
:103D80006047DFE80CF0090B02024FF000414FF0F2
:103D90000000A1F5002170BD19461046012851EB25
:103DA000010418BFD4F5001484BF002001F00041C5
:103DB00070BD0808A0F500114FEA3101704791EA83
:103DC000030F10B581F000413FF59AAD83F0004339
:103DD00000F008B810B591EA030F48BF83F0004324
:103DE0003FF58EAD841A71EB030C07D212198CF0DB
:103DF000004C43EB0C03001B61EB0C01DFF8A4E16A
:103E00004FEA1154A4EB135C1EEA430F18BF9EEA5D
:103E1000445F00F0B08023EA6E03524221EA04516D
:103E2000C3EB6E0338BF5B1EDCF1200E25D322FAF4
:103E30000CFE10EB0E0043FA0CFE41EB0E01CCF130
:103E4000200E03FA0EFE10EB0E0051F10001CCF132
:103E5000200E29D412FA0EF201EB0451BDE81040F5
:103E600058BF7047401C1CBFB2F1004F704700287C
:103E70000CBF491C20F00100704712EB020E43EB0F
:103E8000030218BF4FF0010E4EEA4202ACF1200CC3
:103E9000DCF11E0E54D943FA0CFE10EB0E0051F16A
:103EA000FF31CCF11E0ED5D50EF1010E12FA0EFE29
:103EB000404141EB010101EB445C5FEA5C5C10D9DD
:103EC00010EBDE7001EB045138BFBEF1004FBDE8CE
:103ED000104018BF704700280CBF491C20F001009B
:103EE000704730D24FEAD42C11F5001124F400644D
:103EF0001BD0B1FA81F20B3AA41AA41ED2F120030E
:103F0000914030FA03F31943904001EBCC71002C3F
:103F100001EB0451BDE81040A8BF704701F1C0415A
:103F20004FF0000001F000417047B0FA80F310FA42
:103F300003F100D110BDE41A173C4805C90AE4E7B3
:103F400001EB045110BD491001EB0451BDE81040D4
:103F50004FEA300002E04FF0000170474A0008BF0E
:103F60000042F8D0B2F5001F28BF704701F00041B1
:103F70004FF0000070479EEA445F07D011EA5E0FE1
:103F8000BDE8104004BF002100207047BDE810408C
:103F900070B5FFF7C0FE00BF40DFF63E83F0004182
:103FA000104670470000E0FF43004FEAD30C4FEA91
:103FB0003C0C43401FBF40070CF1605113F0FE4F13
:103FC00070471CF0006F03D100200CF000417047D7
:103FD0000CF0004343EA507010B540EACC0000F00A
:103FE000B1F800BF000000924FEA0001FFF7E1BE08
:103FF0004FF000414FF00000A1F500217047000094
:1040000090EA010F48BF81F0004100F11E81421A81
:104010003CBF801A89184FEAD0524FF07F4C1CEAFF
:10402000410FA2EBD15318BF9CEA026F00F03B8016
:104030004FF0004C4CEA00204CEA012121FA03FC2D
:1040400010EB0C0C1ED202F1FF325FEA1C2040EB99
:10405000C25038BF70471CF07F0F4FEA400C18BFAA
:10406000BCF17F4F38BF7047C3F12003994008BFB0
:1040700020F00100BCF17F4F38BF7047A0F1C04075
:1040800000F0A6B84FEA3C00000A40EBC25028BF3F
:104090001CF0FF0F4FEA400CE6D018BFBCF17F4F79
:1040A00038BF7047EAE79CEA026F05D010EA5C0F60
:1040B00008BF00F00040704710B500F043F800BFA3
:1040C00064FBBE3E401058BFC0F14040491058BF8D
:1040D000C1F140418142EFF30080704750EA010C8A
:1040E00000F113801CF5000F58BFBCF5000F01D480
:1040F0008842704707D710F5000F58BF11F5000F21
:1041000015D488427047894270471CF5000F04D5CA
:10411000BCF5000FF7D5814270474FF0807C1CEB57
:10412000400F38BF1CEB410F01D28142704710B5E0
:1041300000F008F8922449004FF000504FF08051F1
:10414000FFF7C0BF0EF1020E2EF0030E5EF8044B17
:10415000244204D44FEA4102B2F17F4F11D84FEA12
:104160004003B3F17F4F0CD80ED14FEAD07CB2F1AF
:104170007F4F0CEB4C0C0CF1020C08BF4CEBD17CCC
:1041800004E04FF0080C01E04FEAD17C0CEB4C034B
:1041900024FA03F404F00704B4F1040C06D20EEB85
:1041A000840CBDE810404CF0010C6047DFE80CF0D7
:1041B000070802024FF00040A0F5800010BD08463D
:1041C000420018BFD2F1807288BF00F0004010BDDD
:1041D000FF2141EAD050C005704751EA000C00F1C0
:1041E00013801CF5000F58BFBCF5000F01D48142AD
:1041F000704707D711F5000F58BF10F5000F15D401
:1042000081427047894270471CF5000F04D5BCF508
:10421000000FF7D5884270474FF0807C1CEB410FB0
:1042200038BF1CEB400F01D28842704780EA010082
:1042300081EA000180EA0100FFF779BF90EA010FEF
:1042400048BF81F000413FF5E2AE421A04D882F047
:104250000042A0EB020011444FEAD0524FF07F4CD5
:104260001CEA410FA2EBD15318BF9CEA026F4AD05F
:104270004FF0004C4CEA00204CEA012121FA03FCEB
:10428000B0EB0C0C0FD412F0FE0F36D05FEA4C00EE
:104290001DD5001240EBC25038BF70471CF03F0FD5
:1042A00018BF70470BE0A2F101025FEA1C2040EB4F
:1042B000C25038BF70471CF07F0F18BF7047C3F162
:1042C0002003994014BF401E20F001007047800871
:1042D0004FEA122308BF7047B0FA80FCA2EB0C0231
:1042E000CCF1280C60FA0CF093EA122F04BF00EB1B
:1042F000C25070474FEAC3707047130A5FEADC1080
:1043000008BF7047F6E79CEA026F04D010EA5C0F22
:1043100008BF0020704710B5FFF714FF40DFF63EDE
:1043200081F000407047FCF7F4BBFCF729BD0000AA
:1043300000000000000000003031323334353637E1
:1043400038394142434445464030580030313233D9
:1043500034353637383961626364656640307800D9
:10436000040000080000000000000002000100003E
:104370001030313233343536373839616263646531
:10438000667870003031323334353637383941424F
:10439000434445465850000002400000000000A081
:1043A0000000000005400000000000C80000000000
:1043B0000C4000000000409C00000000194000007C
:1043C0000020BCBE0000000034400000BFC91B8EAE
:1043D00000000004B5400000504BCFD06607E2CF8C
:1043E000010000006C4100003E8251AADFEEA734BC
:1043F00001000000D9420000DCB5A0E23A301F976E
:10440000FFFFFFFFB4450000FD25A0C8E9A3C14F91
:10441000FFFFFFFFFF3F00000000008000000000E2
:10442000FF3F000000000080000000007845000809
:10443000000000204000000028010008B8450008E6
:1044400040000020A8060000440100081C000000F5
:1044500043000000F8FFFFFF0C0000000E0000000A
:104460000F0000002E0000001001000043000000BB
:10447000F8FFFFFF00404040404040404040414185
:104480004141414040404040404040404040404029
:1044900040404040400502020202020202020202C3
:1044A00002020202022020202020202020202002C0
:1044B0000202020202029090909090901010101050
:1044C00010101010101010101010101010101010EC
:1044D0000202020202028888888888880808080880
:1044E000080808080808080808080808080808084C
:1044F0000202020240000000000000000000000074
:1045000000000000000000000000000000000000AB
:10451000000000000000000000000000000000009B
:10452000000000000000000000000000000000008B
:10453000000000000000000000000000000000007B
:10454000000000000000000000000000000000006B
:10455000000000000000000000000000000000005B
:10456000000000000000000000000000000000004B
:10457000000000000000000000000000000000003B
:10458000000000000000000000000000000000002B
:10459000000000000000000000000000000000001B
:1045A00000000000010203040102030406070809D9
:0845B0000204060800000000EF
:0400000508000235B8
:00000001FF
